{
  "contractName": "AXCCrowdsale",
  "abi": [
    {
      "constant": true,
      "inputs": [],
      "name": "hasClosed",
      "outputs": [
        {
          "name": "",
          "type": "bool"
        }
      ],
      "payable": false,
      "stateMutability": "view",
      "type": "function"
    },
    {
      "constant": true,
      "inputs": [],
      "name": "rate",
      "outputs": [
        {
          "name": "",
          "type": "uint256"
        }
      ],
      "payable": false,
      "stateMutability": "view",
      "type": "function"
    },
    {
      "constant": true,
      "inputs": [],
      "name": "cap",
      "outputs": [
        {
          "name": "",
          "type": "uint256"
        }
      ],
      "payable": false,
      "stateMutability": "view",
      "type": "function"
    },
    {
      "constant": true,
      "inputs": [],
      "name": "goal",
      "outputs": [
        {
          "name": "",
          "type": "uint256"
        }
      ],
      "payable": false,
      "stateMutability": "view",
      "type": "function"
    },
    {
      "constant": true,
      "inputs": [],
      "name": "weiRaised",
      "outputs": [
        {
          "name": "",
          "type": "uint256"
        }
      ],
      "payable": false,
      "stateMutability": "view",
      "type": "function"
    },
    {
      "constant": true,
      "inputs": [],
      "name": "closingTime",
      "outputs": [
        {
          "name": "",
          "type": "uint256"
        }
      ],
      "payable": false,
      "stateMutability": "view",
      "type": "function"
    },
    {
      "constant": false,
      "inputs": [],
      "name": "finalize",
      "outputs": [],
      "payable": false,
      "stateMutability": "nonpayable",
      "type": "function"
    },
    {
      "constant": true,
      "inputs": [],
      "name": "capReached",
      "outputs": [
        {
          "name": "",
          "type": "bool"
        }
      ],
      "payable": false,
      "stateMutability": "view",
      "type": "function"
    },
    {
      "constant": true,
      "inputs": [],
      "name": "wallet",
      "outputs": [
        {
          "name": "",
          "type": "address"
        }
      ],
      "payable": false,
      "stateMutability": "view",
      "type": "function"
    },
    {
      "constant": true,
      "inputs": [],
      "name": "goalReached",
      "outputs": [
        {
          "name": "",
          "type": "bool"
        }
      ],
      "payable": false,
      "stateMutability": "view",
      "type": "function"
    },
    {
      "constant": true,
      "inputs": [],
      "name": "isFinalized",
      "outputs": [
        {
          "name": "",
          "type": "bool"
        }
      ],
      "payable": false,
      "stateMutability": "view",
      "type": "function"
    },
    {
      "constant": true,
      "inputs": [],
      "name": "owner",
      "outputs": [
        {
          "name": "",
          "type": "address"
        }
      ],
      "payable": false,
      "stateMutability": "view",
      "type": "function"
    },
    {
      "constant": false,
      "inputs": [],
      "name": "claimRefund",
      "outputs": [],
      "payable": false,
      "stateMutability": "nonpayable",
      "type": "function"
    },
    {
      "constant": true,
      "inputs": [],
      "name": "openingTime",
      "outputs": [
        {
          "name": "",
          "type": "uint256"
        }
      ],
      "payable": false,
      "stateMutability": "view",
      "type": "function"
    },
    {
      "constant": false,
      "inputs": [
        {
          "name": "_beneficiary",
          "type": "address"
        }
      ],
      "name": "buyTokens",
      "outputs": [],
      "payable": true,
      "stateMutability": "payable",
      "type": "function"
    },
    {
      "constant": false,
      "inputs": [
        {
          "name": "newOwner",
          "type": "address"
        }
      ],
      "name": "transferOwnership",
      "outputs": [],
      "payable": false,
      "stateMutability": "nonpayable",
      "type": "function"
    },
    {
      "constant": true,
      "inputs": [],
      "name": "vault",
      "outputs": [
        {
          "name": "",
          "type": "address"
        }
      ],
      "payable": false,
      "stateMutability": "view",
      "type": "function"
    },
    {
      "constant": true,
      "inputs": [],
      "name": "token",
      "outputs": [
        {
          "name": "",
          "type": "address"
        }
      ],
      "payable": false,
      "stateMutability": "view",
      "type": "function"
    },
    {
      "inputs": [
        {
          "name": "_openingTime",
          "type": "uint256"
        },
        {
          "name": "_closingTime",
          "type": "uint256"
        },
        {
          "name": "_rate",
          "type": "uint256"
        },
        {
          "name": "_goal",
          "type": "uint256"
        },
        {
          "name": "_wallet",
          "type": "address"
        },
        {
          "name": "_cap",
          "type": "uint256"
        },
        {
          "name": "_token",
          "type": "address"
        }
      ],
      "payable": false,
      "stateMutability": "nonpayable",
      "type": "constructor"
    },
    {
      "payable": true,
      "stateMutability": "payable",
      "type": "fallback"
    },
    {
      "anonymous": false,
      "inputs": [],
      "name": "Finalized",
      "type": "event"
    },
    {
      "anonymous": false,
      "inputs": [
        {
          "indexed": true,
          "name": "previousOwner",
          "type": "address"
        },
        {
          "indexed": true,
          "name": "newOwner",
          "type": "address"
        }
      ],
      "name": "OwnershipTransferred",
      "type": "event"
    },
    {
      "anonymous": false,
      "inputs": [
        {
          "indexed": true,
          "name": "purchaser",
          "type": "address"
        },
        {
          "indexed": true,
          "name": "beneficiary",
          "type": "address"
        },
        {
          "indexed": false,
          "name": "value",
          "type": "uint256"
        },
        {
          "indexed": false,
          "name": "amount",
          "type": "uint256"
        }
      ],
      "name": "TokenPurchase",
      "type": "event"
    },
    {
      "constant": false,
      "inputs": [
        {
          "name": "team",
          "type": "address"
        },
        {
          "name": "reserve",
          "type": "address"
        }
      ],
      "name": "MintForAlloc",
      "outputs": [],
      "payable": false,
      "stateMutability": "nonpayable",
      "type": "function"
    }
  ],
  "bytecode": "0x60606040526007805460a060020a60ff0219908116909155600980549091169055341561002b57600080fd5b60405160e0806113238339810160405280805191906020018051919060200180519190602001805191906020018051919060200180519190602001805191508490508787848887866000831161008057600080fd5b600160a060020a038216151561009557600080fd5b600160a060020a03811615156100aa57600080fd5b60029290925560018054600160a060020a03928316600160a060020a0319918216179091556000805492909316911617815581116100e757600080fd5b600455428210156100f757600080fd5b8181101561010457600080fd5b60059190915560065560078054600160a060020a03191633600160a060020a03161790556000811161013557600080fd5b600154600160a060020a03166101496101ab565b600160a060020a039091168152602001604051809103906000f080151561016f57600080fd5b60098054600160a060020a031916600160a060020a03929092169190911790556008558184111561019f57600080fd5b505050505050506101bb565b60405161060c80610d1783390190565b610b4d806101ca6000396000f3006060604052600436106100ed5763ffffffff60e060020a6000350416631515bc2b81146100f85780632c4e722e1461011f578063355274ea1461014457806340193883146101575780634042b66f1461016a5780634b6753bc1461017d5780634bb278f3146101905780634f935945146101a3578063521eb273146101b65780637d3d6522146101e55780638d4e4083146101f85780638da5cb5b1461020b578063b5545a3c1461021e578063b7a8807c14610231578063ec8ac4d814610244578063f2fde38b14610258578063f817a9d914610277578063fbfa77cf1461029c578063fc0c546a146102af575b6100f6336102c2565b005b341561010357600080fd5b61010b61036a565b604051901515815260200160405180910390f35b341561012a57600080fd5b610132610372565b60405190815260200160405180910390f35b341561014f57600080fd5b610132610378565b341561016257600080fd5b61013261037e565b341561017557600080fd5b610132610384565b341561018857600080fd5b61013261038a565b341561019b57600080fd5b6100f6610390565b34156101ae57600080fd5b61010b61042f565b34156101c157600080fd5b6101c961043a565b604051600160a060020a03909116815260200160405180910390f35b34156101f057600080fd5b61010b610449565b341561020357600080fd5b61010b610454565b341561021657600080fd5b6101c9610464565b341561022957600080fd5b6100f6610473565b341561023c57600080fd5b6101326104fa565b6100f6600160a060020a03600435166102c2565b341561026357600080fd5b6100f6600160a060020a0360043516610500565b341561028257600080fd5b6100f6600160a060020a036004358116906024351661059b565b34156102a757600080fd5b6101c9610796565b34156102ba57600080fd5b6101c96107a5565b3460006102cf83836107b4565b6102d8826107e1565b6003549091506102ee908363ffffffff6108dd16565b6003556102fb83826108f7565b82600160a060020a031633600160a060020a03167f623b3804fa71d67900d064613da8f94b9617215ee90799290593e1745087ad18848460405191825260208201526040908101905180910390a361035383836107dd565b61035b610901565b61036583836107dd565b505050565b600654421190565b60025481565b60045481565b60085481565b60035481565b60065481565b60075433600160a060020a039081169116146103ab57600080fd5b60075460a060020a900460ff16156103c257600080fd5b6103ca61036a565b15156103d557600080fd5b6103dd610964565b7f6823b073d48d6e3a7d385eeb601452d680e74bb46afe3255a7d778f3a9b1768160405160405180910390a16007805474ff0000000000000000000000000000000000000000191660a060020a179055565b600454600354101590565b600154600160a060020a031681565b600854600354101590565b60075460a060020a900460ff1681565b600754600160a060020a031681565b60075460a060020a900460ff16151561048b57600080fd5b610493610449565b1561049d57600080fd5b600954600160a060020a031663fa89401a3360405160e060020a63ffffffff8416028152600160a060020a039091166004820152602401600060405180830381600087803b15156104ed57600080fd5b5af1151561036557600080fd5b60055481565b60075433600160a060020a0390811691161461051b57600080fd5b600160a060020a038116151561053057600080fd5b600754600160a060020a0380831691167f8be0079c531659141344cd1fd0a4f28419497f9722a3daafe3b4186f6b6457e060405160405180910390a36007805473ffffffffffffffffffffffffffffffffffffffff1916600160a060020a0392909216919091179055565b6007546000908190819033600160a060020a039081169116146105bd57600080fd5b6105c561036a565b15156105d057600080fd5b60095460a060020a900460ff16156105e757600080fd5b6000546106639060239061065790606490600160a060020a03166318160ddd6040518163ffffffff1660e060020a028152600401602060405180830381600087803b151561063457600080fd5b5af1151561064157600080fd5b505050604051805191905063ffffffff610a1b16565b9063ffffffff610a4616565b925061067b606461065785600f63ffffffff610a1b16565b915061068e83600263ffffffff610a4616565b600054909150600160a060020a03166340c10f19868460405160e060020a63ffffffff8516028152600160a060020a0390921660048301526024820152604401602060405180830381600087803b15156106e757600080fd5b5af115156106f457600080fd5b50505060405180515050600054600160a060020a03166340c10f19858360405160e060020a63ffffffff8516028152600160a060020a0390921660048301526024820152604401602060405180830381600087803b151561075457600080fd5b5af1151561076157600080fd5b505050604051805150506009805474ff0000000000000000000000000000000000000000191660a060020a1790555050505050565b600954600160a060020a031681565b600054600160a060020a031681565b60055442101580156107c857506006544211155b15156107d357600080fd5b6107dd8282610a5d565b5050565b60008060008060006107ff60b46005546108dd90919063ffffffff16565b6005549094506108179061016863ffffffff6108dd16565b60055490935061082f9061021c63ffffffff6108dd16565b600554909250610847906102d063ffffffff6108dd16565b9050834211801561085757508242105b1561086757612cec6002556108bf565b824211801561087557508142105b1561088557612af86002556108bf565b814211801561089357508042105b156108a3576129046002556108bf565b80421180156108b3575060065442105b156108bf576127106002555b6002546108d390879063ffffffff610a1b16565b9695505050505050565b6000828201838110156108ec57fe5b8091505b5092915050565b6107dd8282610a88565b600954600160a060020a031663f340fa01343360405160e060020a63ffffffff8516028152600160a060020a0390911660048201526024016000604051808303818588803b151561095157600080fd5b5af1151561095e57600080fd5b50505050565b61096c610449565b156109c557600954600160a060020a03166343d726d66040518163ffffffff1660e060020a028152600401600060405180830381600087803b15156109b057600080fd5b5af115156109bd57600080fd5b505050610a15565b600954600160a060020a0316638c52dc416040518163ffffffff1660e060020a028152600401600060405180830381600087803b1515610a0457600080fd5b5af11515610a1157600080fd5b5050505b610a195b565b600080831515610a2e57600091506108f0565b50828202828482811515610a3e57fe5b04146108ec57fe5b6000808284811515610a5457fe5b04949350505050565b610a678282610b00565b600454600354610a7d908363ffffffff6108dd16565b11156107dd57600080fd5b600054600160a060020a03166340c10f19838360405160e060020a63ffffffff8516028152600160a060020a0390921660048301526024820152604401602060405180830381600087803b1515610ade57600080fd5b5af11515610aeb57600080fd5b5050506040518051905015156107dd57600080fd5b600160a060020a0382161515610b1557600080fd5b8015156107dd57600080fd00a165627a7a723058207dcef21af92b4f6da98d54156a8d0c6839d71057097281ef70837c59bedab2ba00296060604052341561000f57600080fd5b60405160208061060c8339810160405280805160008054600160a060020a03191633600160a060020a039081169190911790915590925082161515905061005557600080fd5b60028054600160a060020a031916600160a060020a03929092169190911760a060020a60ff021916905561057e8061008e6000396000f3006060604052600436106100985763ffffffff7c010000000000000000000000000000000000000000000000000000000060003504166343d726d6811461009d578063521eb273146100b25780638c52dc41146100e15780638da5cb5b146100f4578063c19d93fb14610107578063cb13cddb1461013e578063f2fde38b1461016f578063f340fa011461018e578063fa89401a146101a2575b600080fd5b34156100a857600080fd5b6100b06101c1565b005b34156100bd57600080fd5b6100c561029c565b604051600160a060020a03909116815260200160405180910390f35b34156100ec57600080fd5b6100b06102ab565b34156100ff57600080fd5b6100c561033c565b341561011257600080fd5b61011a61034b565b6040518082600281111561012a57fe5b60ff16815260200191505060405180910390f35b341561014957600080fd5b61015d600160a060020a036004351661035b565b60405190815260200160405180910390f35b341561017a57600080fd5b6100b0600160a060020a036004351661036d565b6100b0600160a060020a0360043516610408565b34156101ad57600080fd5b6100b0600160a060020a036004351661048c565b60005433600160a060020a039081169116146101dc57600080fd5b60006002805460a060020a900460ff16908111156101f657fe5b1461020057600080fd5b6002805474ff00000000000000000000000000000000000000001916740200000000000000000000000000000000000000001790557f1cdde67b72a90f19919ac732a437ac2f7a10fc128d28c2a6e525d89ce5cd9d3a60405160405180910390a1600254600160a060020a039081169030163180156108fc0290604051600060405180830381858888f19350505050151561029a57600080fd5b565b600254600160a060020a031681565b60005433600160a060020a039081169116146102c657600080fd5b60006002805460a060020a900460ff16908111156102e057fe5b146102ea57600080fd5b6002805474ff0000000000000000000000000000000000000000191660a060020a1790557f599d8e5a83cffb867d051598c4d70e805d59802d8081c1c7d6dffc5b6aca2b8960405160405180910390a1565b600054600160a060020a031681565b60025460a060020a900460ff1681565b60016020526000908152604090205481565b60005433600160a060020a0390811691161461038857600080fd5b600160a060020a038116151561039d57600080fd5b600054600160a060020a0380831691167f8be0079c531659141344cd1fd0a4f28419497f9722a3daafe3b4186f6b6457e060405160405180910390a36000805473ffffffffffffffffffffffffffffffffffffffff1916600160a060020a0392909216919091179055565b60005433600160a060020a0390811691161461042357600080fd5b60006002805460a060020a900460ff169081111561043d57fe5b1461044757600080fd5b600160a060020a038116600090815260016020526040902054610470903463ffffffff61053c16565b600160a060020a03909116600090815260016020526040902055565b600060016002805460a060020a900460ff16908111156104a857fe5b146104b257600080fd5b50600160a060020a038116600081815260016020526040808220805492905590919082156108fc0290839051600060405180830381858888f1935050505015156104fb57600080fd5b81600160a060020a03167fd7dee2702d63ad89917b6a4da9981c90c4d24f8c2bdfd64c604ecae57d8d06518260405190815260200160405180910390a25050565b60008282018381101561054b57fe5b93925050505600a165627a7a72305820df47823a0e39486806747231e35e14d7a59c983510f8e97ead747f7e312efe420029",
  "source": "pragma solidity ^0.4.18;\nimport \"./AXCToken.sol\";\nimport \"zeppelin-solidity/contracts/crowdsale/validation/TimedCrowdsale.sol\";\nimport \"zeppelin-solidity/contracts/crowdsale/validation/CappedCrowdsale.sol\";\nimport \"zeppelin-solidity/contracts/crowdsale/distribution/RefundableCrowdsale.sol\";\nimport \"zeppelin-solidity/contracts/crowdsale/emission/MintedCrowdsale.sol\";\nimport \"zeppelin-solidity/contracts/token/ERC20/MintableToken.sol\";\ncontract AXCCrowdsale is CappedCrowdsale, MintedCrowdsale, TimedCrowdsale, RefundableCrowdsale {\n\n    bool private allocFinished = false;\n\n  function AXCCrowdsale(\n    uint256 _openingTime,\n    uint256 _closingTime,\n    uint256 _rate,\n    uint256 _goal,\n    address _wallet,\n    uint256 _cap,\n    MintableToken _token\n  )\n  public\n  Crowdsale(_rate, _wallet, _token)\n  CappedCrowdsale(_cap)\n  RefundableCrowdsale(_goal)\n  TimedCrowdsale(_openingTime, _closingTime)\n  {\n    require(_goal <= _cap);\n  }\n\n\n  //override _getTokenAmount() in zeppelin-solidity in order to change purchase_rate at every stage.\n  //initial rate is 12000.\n  function _getTokenAmount(uint256 _weiAmount) internal view returns (uint256) {\n    uint256 periodOfPreSale = openingTime.add(3 minutes);\n    uint256 periodOfWeek1 = openingTime.add(6 minutes);\n    uint256 periodOfWeek2 = openingTime.add(9 minutes);\n    uint256 periodOfWeek3 = openingTime.add(12 minutes);\n    if (now > periodOfPreSale && now < periodOfWeek1){\n        rate = 11500;\n    }else if (now > periodOfWeek1 && now < periodOfWeek2){\n        rate = 11000;\n    }else if (now > periodOfWeek2 && now < periodOfWeek3){\n        rate = 10500;\n    }else if (now > periodOfWeek3 && now < closingTime){\n        rate = 10000;\n    }\n    return _weiAmount.mul(rate);\n  }\n\n\n  // Mint AXCtoken for Team and Reservation.\n  // This function should be triggered by owner after closingTime.\n  // Amount of totalAXC depends on totalSupply at Crowdsale.\n  // Mint 15% of totalAXC for Team.\n  // Mint 50% of totalAXC for Reservation.\n  function MintForAlloc(address team, address reserve) onlyOwner() public{\n    require(hasClosed());\n    require(allocFinished == false);\n    uint256 totalAXC = token.totalSupply().mul(100).div(35);\n    uint256 amountForTeam = totalAXC.mul(15).div(100);\n    uint256 amountForReserve = totalAXC.div(2);\n    AXCToken(token).mint(team, amountForTeam);\n    AXCToken(token).mint(reserve, amountForReserve);\n    allocFinished = true;\n  }\n}\n",
  "sourcePath": "/Users/satomikennta/Desktop/copy_Of_axctokens/contracts/AXCCrowdSale.sol",
  "compiler": {
    "name": "solc",
    "version": "0.4.21+commit.dfe3193c.Emscripten.clang"
  },
  "schemaVersion": "2.0.0",
  "updatedAt": "2018-05-29T05:03:27.897Z"
}